{
  "address": "0x1F5Ba067cF9470F4e99D1edD06E8d20aEa43AC71",
  "abi": [
    {
      "inputs": [
        {
          "internalType": "string",
          "name": "name",
          "type": "string"
        },
        {
          "internalType": "string",
          "name": "symbol",
          "type": "string"
        },
        {
          "internalType": "address",
          "name": "vrfCoordinator",
          "type": "address"
        },
        {
          "internalType": "bytes32",
          "name": "keyHash",
          "type": "bytes32"
        },
        {
          "internalType": "uint64",
          "name": "subscriptionId",
          "type": "uint64"
        }
      ],
      "stateMutability": "nonpayable",
      "type": "constructor"
    },
    {
      "inputs": [
        {
          "internalType": "address",
          "name": "have",
          "type": "address"
        },
        {
          "internalType": "address",
          "name": "want",
          "type": "address"
        }
      ],
      "name": "OnlyCoordinatorCanFulfill",
      "type": "error"
    },
    {
      "anonymous": false,
      "inputs": [
        {
          "indexed": true,
          "internalType": "address",
          "name": "owner",
          "type": "address"
        },
        {
          "indexed": true,
          "internalType": "address",
          "name": "approved",
          "type": "address"
        },
        {
          "indexed": true,
          "internalType": "uint256",
          "name": "tokenId",
          "type": "uint256"
        }
      ],
      "name": "Approval",
      "type": "event"
    },
    {
      "anonymous": false,
      "inputs": [
        {
          "indexed": true,
          "internalType": "address",
          "name": "owner",
          "type": "address"
        },
        {
          "indexed": true,
          "internalType": "address",
          "name": "operator",
          "type": "address"
        },
        {
          "indexed": false,
          "internalType": "bool",
          "name": "approved",
          "type": "bool"
        }
      ],
      "name": "ApprovalForAll",
      "type": "event"
    },
    {
      "anonymous": false,
      "inputs": [
        {
          "indexed": true,
          "internalType": "address",
          "name": "from",
          "type": "address"
        },
        {
          "indexed": true,
          "internalType": "address",
          "name": "to",
          "type": "address"
        },
        {
          "indexed": true,
          "internalType": "uint256",
          "name": "tokenId",
          "type": "uint256"
        }
      ],
      "name": "Transfer",
      "type": "event"
    },
    {
      "inputs": [],
      "name": "COORDINATOR",
      "outputs": [
        {
          "internalType": "contract VRFCoordinatorV2Interface",
          "name": "",
          "type": "address"
        }
      ],
      "stateMutability": "view",
      "type": "function"
    },
    {
      "inputs": [
        {
          "internalType": "address",
          "name": "to",
          "type": "address"
        },
        {
          "internalType": "uint256",
          "name": "tokenId",
          "type": "uint256"
        }
      ],
      "name": "approve",
      "outputs": [],
      "stateMutability": "nonpayable",
      "type": "function"
    },
    {
      "inputs": [
        {
          "internalType": "address",
          "name": "owner",
          "type": "address"
        }
      ],
      "name": "balanceOf",
      "outputs": [
        {
          "internalType": "uint256",
          "name": "",
          "type": "uint256"
        }
      ],
      "stateMutability": "view",
      "type": "function"
    },
    {
      "inputs": [],
      "name": "drawCard",
      "outputs": [],
      "stateMutability": "payable",
      "type": "function"
    },
    {
      "inputs": [],
      "name": "drawCost",
      "outputs": [
        {
          "internalType": "uint64",
          "name": "",
          "type": "uint64"
        }
      ],
      "stateMutability": "view",
      "type": "function"
    },
    {
      "inputs": [
        {
          "internalType": "uint256",
          "name": "tokenId",
          "type": "uint256"
        }
      ],
      "name": "getApproved",
      "outputs": [
        {
          "internalType": "address",
          "name": "",
          "type": "address"
        }
      ],
      "stateMutability": "view",
      "type": "function"
    },
    {
      "inputs": [
        {
          "internalType": "address",
          "name": "owner",
          "type": "address"
        },
        {
          "internalType": "address",
          "name": "operator",
          "type": "address"
        }
      ],
      "name": "isApprovedForAll",
      "outputs": [
        {
          "internalType": "bool",
          "name": "",
          "type": "bool"
        }
      ],
      "stateMutability": "view",
      "type": "function"
    },
    {
      "inputs": [
        {
          "internalType": "address",
          "name": "_claimer",
          "type": "address"
        },
        {
          "internalType": "string",
          "name": "_tokenURI",
          "type": "string"
        }
      ],
      "name": "mintCard",
      "outputs": [
        {
          "internalType": "uint256",
          "name": "",
          "type": "uint256"
        }
      ],
      "stateMutability": "nonpayable",
      "type": "function"
    },
    {
      "inputs": [],
      "name": "name",
      "outputs": [
        {
          "internalType": "string",
          "name": "",
          "type": "string"
        }
      ],
      "stateMutability": "view",
      "type": "function"
    },
    {
      "inputs": [
        {
          "internalType": "uint256",
          "name": "tokenId",
          "type": "uint256"
        }
      ],
      "name": "ownerOf",
      "outputs": [
        {
          "internalType": "address",
          "name": "",
          "type": "address"
        }
      ],
      "stateMutability": "view",
      "type": "function"
    },
    {
      "inputs": [
        {
          "internalType": "uint256",
          "name": "requestId",
          "type": "uint256"
        },
        {
          "internalType": "uint256[]",
          "name": "randomWords",
          "type": "uint256[]"
        }
      ],
      "name": "rawFulfillRandomWords",
      "outputs": [],
      "stateMutability": "nonpayable",
      "type": "function"
    },
    {
      "inputs": [
        {
          "internalType": "uint256",
          "name": "",
          "type": "uint256"
        }
      ],
      "name": "requestIds",
      "outputs": [
        {
          "internalType": "address",
          "name": "",
          "type": "address"
        }
      ],
      "stateMutability": "view",
      "type": "function"
    },
    {
      "inputs": [
        {
          "internalType": "address",
          "name": "from",
          "type": "address"
        },
        {
          "internalType": "address",
          "name": "to",
          "type": "address"
        },
        {
          "internalType": "uint256",
          "name": "tokenId",
          "type": "uint256"
        }
      ],
      "name": "safeTransferFrom",
      "outputs": [],
      "stateMutability": "nonpayable",
      "type": "function"
    },
    {
      "inputs": [
        {
          "internalType": "address",
          "name": "from",
          "type": "address"
        },
        {
          "internalType": "address",
          "name": "to",
          "type": "address"
        },
        {
          "internalType": "uint256",
          "name": "tokenId",
          "type": "uint256"
        },
        {
          "internalType": "bytes",
          "name": "_data",
          "type": "bytes"
        }
      ],
      "name": "safeTransferFrom",
      "outputs": [],
      "stateMutability": "nonpayable",
      "type": "function"
    },
    {
      "inputs": [
        {
          "internalType": "address",
          "name": "operator",
          "type": "address"
        },
        {
          "internalType": "bool",
          "name": "approved",
          "type": "bool"
        }
      ],
      "name": "setApprovalForAll",
      "outputs": [],
      "stateMutability": "nonpayable",
      "type": "function"
    },
    {
      "inputs": [
        {
          "internalType": "bytes4",
          "name": "interfaceId",
          "type": "bytes4"
        }
      ],
      "name": "supportsInterface",
      "outputs": [
        {
          "internalType": "bool",
          "name": "",
          "type": "bool"
        }
      ],
      "stateMutability": "view",
      "type": "function"
    },
    {
      "inputs": [],
      "name": "symbol",
      "outputs": [
        {
          "internalType": "string",
          "name": "",
          "type": "string"
        }
      ],
      "stateMutability": "view",
      "type": "function"
    },
    {
      "inputs": [
        {
          "internalType": "uint256",
          "name": "tokenId",
          "type": "uint256"
        }
      ],
      "name": "tokenURI",
      "outputs": [
        {
          "internalType": "string",
          "name": "",
          "type": "string"
        }
      ],
      "stateMutability": "view",
      "type": "function"
    },
    {
      "inputs": [],
      "name": "totalSupply",
      "outputs": [
        {
          "internalType": "uint256",
          "name": "",
          "type": "uint256"
        }
      ],
      "stateMutability": "view",
      "type": "function"
    },
    {
      "inputs": [
        {
          "internalType": "address",
          "name": "from",
          "type": "address"
        },
        {
          "internalType": "address",
          "name": "to",
          "type": "address"
        },
        {
          "internalType": "uint256",
          "name": "tokenId",
          "type": "uint256"
        }
      ],
      "name": "transferFrom",
      "outputs": [],
      "stateMutability": "nonpayable",
      "type": "function"
    },
    {
      "inputs": [
        {
          "internalType": "address",
          "name": "",
          "type": "address"
        }
      ],
      "name": "userRandomWords",
      "outputs": [
        {
          "internalType": "uint256",
          "name": "",
          "type": "uint256"
        }
      ],
      "stateMutability": "view",
      "type": "function"
    },
    {
      "inputs": [
        {
          "internalType": "address",
          "name": "",
          "type": "address"
        }
      ],
      "name": "userRequestIds",
      "outputs": [
        {
          "internalType": "uint256",
          "name": "",
          "type": "uint256"
        }
      ],
      "stateMutability": "view",
      "type": "function"
    },
    {
      "inputs": [],
      "name": "vrfSubscriptionId",
      "outputs": [
        {
          "internalType": "uint64",
          "name": "",
          "type": "uint64"
        }
      ],
      "stateMutability": "view",
      "type": "function"
    }
  ],
  "transactionHash": "0x73eacd9fb0fab1f9a068aa363a42adb7f330b0fcb319260ffa4c19304bf47b1d",
  "args": [
    "DMagic",
    "DMAGIC",
    "0x6168499c0cffcacd319c818142124b7a15e857ab",
    "0xd89b2bf150e3b9e13446986e571fb9cab24b13cea0a43ea20a6049a85cc807cc",
    1243
  ],
  "numDeployments": 3,
  "solcInputHash": "2460af390e7a773d9a63bb7a962030fa",
  "bytecode": "0x60a0604052633b9aca00600760006101000a81548167ffffffffffffffff021916908367ffffffffffffffff160217905550611388600c60006101000a81548163ffffffff021916908363ffffffff160217905550620186a0600c60046101000a81548163ffffffff021916908363ffffffff1602179055506003600c60086101000a81548161ffff021916908361ffff160217905550348015620000a357600080fd5b50604051620039de380380620039de8339818101604052810190620000c991906200031b565b8285858160009080519060200190620000e4929190620001b4565b508060019080519060200190620000fd929190620001b4565b5050508073ffffffffffffffffffffffffffffffffffffffff1660808173ffffffffffffffffffffffffffffffffffffffff1660601b815250505082600660006101000a81548173ffffffffffffffffffffffffffffffffffffffff021916908373ffffffffffffffffffffffffffffffffffffffff16021790555081600d8190555080600660146101000a81548167ffffffffffffffff021916908367ffffffffffffffff1602179055505050505050620005df565b828054620001c290620004b6565b90600052602060002090601f016020900481019282620001e6576000855562000232565b82601f106200020157805160ff191683800117855562000232565b8280016001018555821562000232579182015b828111156200023157825182559160200191906001019062000214565b5b50905062000241919062000245565b5090565b5b808211156200026057600081600090555060010162000246565b5090565b60006200027b6200027584620003f8565b620003cf565b9050828152602081018484840111156200029457600080fd5b620002a184828562000480565b509392505050565b600081519050620002ba8162000591565b92915050565b600081519050620002d181620005ab565b92915050565b600082601f830112620002e957600080fd5b8151620002fb84826020860162000264565b91505092915050565b6000815190506200031581620005c5565b92915050565b600080600080600060a086880312156200033457600080fd5b600086015167ffffffffffffffff8111156200034f57600080fd5b6200035d88828901620002d7565b955050602086015167ffffffffffffffff8111156200037b57600080fd5b6200038988828901620002d7565b94505060406200039c88828901620002a9565b9350506060620003af88828901620002c0565b9250506080620003c28882890162000304565b9150509295509295909350565b6000620003db620003ee565b9050620003e98282620004ec565b919050565b6000604051905090565b600067ffffffffffffffff82111562000416576200041562000551565b5b620004218262000580565b9050602081019050919050565b60006200043b826200044c565b9050919050565b6000819050919050565b600073ffffffffffffffffffffffffffffffffffffffff82169050919050565b600067ffffffffffffffff82169050919050565b60005b83811015620004a057808201518184015260208101905062000483565b83811115620004b0576000848401525b50505050565b60006002820490506001821680620004cf57607f821691505b60208210811415620004e657620004e562000522565b5b50919050565b620004f78262000580565b810181811067ffffffffffffffff8211171562000519576200051862000551565b5b80604052505050565b7f4e487b7100000000000000000000000000000000000000000000000000000000600052602260045260246000fd5b7f4e487b7100000000000000000000000000000000000000000000000000000000600052604160045260246000fd5b6000601f19601f8301169050919050565b6200059c816200042e565b8114620005a857600080fd5b50565b620005b68162000442565b8114620005c257600080fd5b50565b620005d0816200046c565b8114620005dc57600080fd5b50565b60805160601c6133d962000605600039600081816108c6015261091a01526133d96000f3fe6080604052600436106101405760003560e01c806370a08231116100b6578063c87b56dd1161006f578063c87b56dd1461045f578063cd31c8b01461049c578063cd7e53cc146104d9578063e1a9538c14610516578063e985e9c514610541578063ed647d211461057e57610140565b806370a082311461032b5780638796ba8c1461036857806395d89b41146103a5578063a22cb465146103d0578063b88d4fde146103f9578063c7ad184e1461042257610140565b80631fe543e3116101085780631fe543e31461023e57806323b872dd146102675780632f5be23e146102905780633b2bcbf11461029a57806342842e0e146102c55780636352211e146102ee57610140565b806301ffc9a71461014557806306fdde0314610182578063081812fc146101ad578063095ea7b3146101ea57806318160ddd14610213575b600080fd5b34801561015157600080fd5b5061016c600480360381019061016791906122aa565b6105a9565b604051610179919061277e565b60405180910390f35b34801561018e57600080fd5b5061019761068b565b6040516101a49190612807565b60405180910390f35b3480156101b957600080fd5b506101d460048036038101906101cf91906122fc565b61071d565b6040516101e191906126ee565b60405180910390f35b3480156101f657600080fd5b50610211600480360381019061020c919061226e565b6107a2565b005b34801561021f57600080fd5b506102286108ba565b6040516102359190612a49565b60405180910390f35b34801561024a57600080fd5b506102656004803603810190610260919061234e565b6108c4565b005b34801561027357600080fd5b5061028e60048036038101906102899190612114565b610984565b005b6102986109e4565b005b3480156102a657600080fd5b506102af610bbd565b6040516102bc91906127ec565b60405180910390f35b3480156102d157600080fd5b506102ec60048036038101906102e79190612114565b610be3565b005b3480156102fa57600080fd5b50610315600480360381019061031091906122fc565b610c03565b60405161032291906126ee565b60405180910390f35b34801561033757600080fd5b50610352600480360381019061034d91906120af565b610cb5565b60405161035f9190612a49565b60405180910390f35b34801561037457600080fd5b5061038f600480360381019061038a91906122fc565b610d6d565b60405161039c91906126ee565b60405180910390f35b3480156103b157600080fd5b506103ba610da0565b6040516103c79190612807565b60405180910390f35b3480156103dc57600080fd5b506103f760048036038101906103f291906121de565b610e32565b005b34801561040557600080fd5b50610420600480360381019061041b9190612163565b610e48565b005b34801561042e57600080fd5b50610449600480360381019061044491906120af565b610eaa565b6040516104569190612a49565b60405180910390f35b34801561046b57600080fd5b50610486600480360381019061048191906122fc565b610ec2565b6040516104939190612807565b60405180910390f35b3480156104a857600080fd5b506104c360048036038101906104be91906120af565b610faf565b6040516104d09190612a49565b60405180910390f35b3480156104e557600080fd5b5061050060048036038101906104fb919061221a565b610fc7565b60405161050d9190612a49565b60405180910390f35b34801561052257600080fd5b5061052b6111be565b6040516105389190612a64565b60405180910390f35b34801561054d57600080fd5b50610568600480360381019061056391906120d8565b6111d8565b604051610575919061277e565b60405180910390f35b34801561058a57600080fd5b5061059361126c565b6040516105a09190612a64565b60405180910390f35b60007f80ac58cd000000000000000000000000000000000000000000000000000000007bffffffffffffffffffffffffffffffffffffffffffffffffffffffff1916827bffffffffffffffffffffffffffffffffffffffffffffffffffffffff1916148061067457507f5b5e139f000000000000000000000000000000000000000000000000000000007bffffffffffffffffffffffffffffffffffffffffffffffffffffffff1916827bffffffffffffffffffffffffffffffffffffffffffffffffffffffff1916145b80610684575061068382611286565b5b9050919050565b60606000805461069a90612d1c565b80601f01602080910402602001604051908101604052809291908181526020018280546106c690612d1c565b80156107135780601f106106e857610100808354040283529160200191610713565b820191906000526020600020905b8154815290600101906020018083116106f657829003601f168201915b5050505050905090565b6000610728826112f0565b610767576040517f08c379a000000000000000000000000000000000000000000000000000000000815260040161075e906129a9565b60405180910390fd5b6004600083815260200190815260200160002060009054906101000a900473ffffffffffffffffffffffffffffffffffffffff169050919050565b60006107ad82610c03565b90508073ffffffffffffffffffffffffffffffffffffffff168373ffffffffffffffffffffffffffffffffffffffff16141561081e576040517f08c379a000000000000000000000000000000000000000000000000000000000815260040161081590612a09565b60405180910390fd5b8073ffffffffffffffffffffffffffffffffffffffff1661083d61135c565b73ffffffffffffffffffffffffffffffffffffffff16148061086c575061086b8161086661135c565b6111d8565b5b6108ab576040517f08c379a00000000000000000000000000000000000000000000000000000000081526004016108a290612929565b60405180910390fd5b6108b58383611364565b505050565b6000600e54905090565b7f000000000000000000000000000000000000000000000000000000000000000073ffffffffffffffffffffffffffffffffffffffff163373ffffffffffffffffffffffffffffffffffffffff161461097657337f00000000000000000000000000000000000000000000000000000000000000006040517f1cf993f400000000000000000000000000000000000000000000000000000000815260040161096d929190612709565b60405180910390fd5b610980828261141d565b5050565b61099561098f61135c565b82611508565b6109d4576040517f08c379a00000000000000000000000000000000000000000000000000000000081526004016109cb90612a29565b60405180910390fd5b6109df8383836115e6565b505050565b600760009054906101000a900467ffffffffffffffff1667ffffffffffffffff163414610a1057600080fd5b6000600660009054906101000a900473ffffffffffffffffffffffffffffffffffffffff1673ffffffffffffffffffffffffffffffffffffffff16635d3b1d30600d54600660149054906101000a900467ffffffffffffffff16600c60089054906101000a900461ffff16600c60049054906101000a900463ffffffff1660016040518663ffffffff1660e01b8152600401610ab0959493929190612799565b602060405180830381600087803b158015610aca57600080fd5b505af1158015610ade573d6000803e3d6000fd5b505050506040513d601f19601f82011682018060405250810190610b029190612325565b9050336008600083815260200190815260200160002060006101000a81548173ffffffffffffffffffffffffffffffffffffffff021916908373ffffffffffffffffffffffffffffffffffffffff1602179055507fffffffffffffffffffffffffffffffffffffffffffffffffffffffffffffffff600a60003373ffffffffffffffffffffffffffffffffffffffff1673ffffffffffffffffffffffffffffffffffffffff1681526020019081526020016000208190555050565b600660009054906101000a900473ffffffffffffffffffffffffffffffffffffffff1681565b610bfe83838360405180602001604052806000815250610e48565b505050565b6000806002600084815260200190815260200160002060009054906101000a900473ffffffffffffffffffffffffffffffffffffffff169050600073ffffffffffffffffffffffffffffffffffffffff168173ffffffffffffffffffffffffffffffffffffffff161415610cac576040517f08c379a0000000000000000000000000000000000000000000000000000000008152600401610ca390612969565b60405180910390fd5b80915050919050565b60008073ffffffffffffffffffffffffffffffffffffffff168273ffffffffffffffffffffffffffffffffffffffff161415610d26576040517f08c379a0000000000000000000000000000000000000000000000000000000008152600401610d1d90612949565b60405180910390fd5b600360008373ffffffffffffffffffffffffffffffffffffffff1673ffffffffffffffffffffffffffffffffffffffff168152602001908152602001600020549050919050565b60086020528060005260406000206000915054906101000a900473ffffffffffffffffffffffffffffffffffffffff1681565b606060018054610daf90612d1c565b80601f0160208091040260200160405190810160405280929190818152602001828054610ddb90612d1c565b8015610e285780601f10610dfd57610100808354040283529160200191610e28565b820191906000526020600020905b815481529060010190602001808311610e0b57829003601f168201915b5050505050905090565b610e44610e3d61135c565b838361184d565b5050565b610e59610e5361135c565b83611508565b610e98576040517f08c379a0000000000000000000000000000000000000000000000000000000008152600401610e8f90612a29565b60405180910390fd5b610ea4848484846119ba565b50505050565b60096020528060005260406000206000915090505481565b6060610ecd826112f0565b610f0c576040517f08c379a0000000000000000000000000000000000000000000000000000000008152600401610f03906129e9565b60405180910390fd5b600f60008381526020019081526020016000208054610f2a90612d1c565b80601f0160208091040260200160405190810160405280929190818152602001828054610f5690612d1c565b8015610fa35780601f10610f7857610100808354040283529160200191610fa3565b820191906000526020600020905b815481529060010190602001808311610f8657829003601f168201915b50505050509050919050565b600a6020528060005260406000206000915090505481565b6000600c60009054906101000a900463ffffffff1663ffffffff16600a60008573ffffffffffffffffffffffffffffffffffffffff1673ffffffffffffffffffffffffffffffffffffffff168152602001908152602001600020541115611063576040517f08c379a000000000000000000000000000000000000000000000000000000000815260040161105a90612849565b60405180910390fd5b6000600a60008573ffffffffffffffffffffffffffffffffffffffff1673ffffffffffffffffffffffffffffffffffffffff16815260200190815260200160002054116110e5576040517f08c379a00000000000000000000000000000000000000000000000000000000081526004016110dc90612889565b60405180910390fd5b6110f183600e54611a16565b6110fd600e5483611bf0565b600a60008473ffffffffffffffffffffffffffffffffffffffff1673ffffffffffffffffffffffffffffffffffffffff16815260200190815260200160002054600b6000600e54815260200190815260200160002081905550600e600081548092919061116990612d7f565b91905055506000600a60008573ffffffffffffffffffffffffffffffffffffffff1673ffffffffffffffffffffffffffffffffffffffff16815260200190815260200160002081905550600e54905092915050565b600760009054906101000a900467ffffffffffffffff1681565b6000600560008473ffffffffffffffffffffffffffffffffffffffff1673ffffffffffffffffffffffffffffffffffffffff16815260200190815260200160002060008373ffffffffffffffffffffffffffffffffffffffff1673ffffffffffffffffffffffffffffffffffffffff16815260200190815260200160002060009054906101000a900460ff16905092915050565b600660149054906101000a900467ffffffffffffffff1681565b60007f01ffc9a7000000000000000000000000000000000000000000000000000000007bffffffffffffffffffffffffffffffffffffffffffffffffffffffff1916827bffffffffffffffffffffffffffffffffffffffffffffffffffffffff1916149050919050565b60008073ffffffffffffffffffffffffffffffffffffffff166002600084815260200190815260200160002060009054906101000a900473ffffffffffffffffffffffffffffffffffffffff1673ffffffffffffffffffffffffffffffffffffffff1614159050919050565b600033905090565b816004600083815260200190815260200160002060006101000a81548173ffffffffffffffffffffffffffffffffffffffff021916908373ffffffffffffffffffffffffffffffffffffffff160217905550808273ffffffffffffffffffffffffffffffffffffffff166113d783610c03565b73ffffffffffffffffffffffffffffffffffffffff167f8c5be1e5ebec7d5bd14f71427d1e84f3dd0314c0f7b2291e5b200ac8c7c3b92560405160405180910390a45050565b6001600c60009054906101000a900463ffffffff1663ffffffff1682600081518110611472577f4e487b7100000000000000000000000000000000000000000000000000000000600052603260045260246000fd5b60200260200101516114849190612dc8565b61148e9190612b6a565b600a60006008600086815260200190815260200160002060009054906101000a900473ffffffffffffffffffffffffffffffffffffffff1673ffffffffffffffffffffffffffffffffffffffff1673ffffffffffffffffffffffffffffffffffffffff168152602001908152602001600020819055505050565b6000611513826112f0565b611552576040517f08c379a000000000000000000000000000000000000000000000000000000000815260040161154990612909565b60405180910390fd5b600061155d83610c03565b90508073ffffffffffffffffffffffffffffffffffffffff168473ffffffffffffffffffffffffffffffffffffffff1614806115cc57508373ffffffffffffffffffffffffffffffffffffffff166115b48461071d565b73ffffffffffffffffffffffffffffffffffffffff16145b806115dd57506115dc81856111d8565b5b91505092915050565b8273ffffffffffffffffffffffffffffffffffffffff1661160682610c03565b73ffffffffffffffffffffffffffffffffffffffff161461165c576040517f08c379a000000000000000000000000000000000000000000000000000000000815260040161165390612869565b60405180910390fd5b600073ffffffffffffffffffffffffffffffffffffffff168273ffffffffffffffffffffffffffffffffffffffff1614156116cc576040517f08c379a00000000000000000000000000000000000000000000000000000000081526004016116c3906128c9565b60405180910390fd5b6116d7838383611c64565b6116e2600082611364565b6001600360008573ffffffffffffffffffffffffffffffffffffffff1673ffffffffffffffffffffffffffffffffffffffff16815260200190815260200160002060008282546117329190612bc0565b925050819055506001600360008473ffffffffffffffffffffffffffffffffffffffff1673ffffffffffffffffffffffffffffffffffffffff16815260200190815260200160002060008282546117899190612b6a565b92505081905550816002600083815260200190815260200160002060006101000a81548173ffffffffffffffffffffffffffffffffffffffff021916908373ffffffffffffffffffffffffffffffffffffffff160217905550808273ffffffffffffffffffffffffffffffffffffffff168473ffffffffffffffffffffffffffffffffffffffff167fddf252ad1be2c89b69c2b068fc378daa952ba7f163c4a11628f55a4df523b3ef60405160405180910390a4611848838383611c69565b505050565b8173ffffffffffffffffffffffffffffffffffffffff168373ffffffffffffffffffffffffffffffffffffffff1614156118bc576040517f08c379a00000000000000000000000000000000000000000000000000000000081526004016118b3906128e9565b60405180910390fd5b80600560008573ffffffffffffffffffffffffffffffffffffffff1673ffffffffffffffffffffffffffffffffffffffff16815260200190815260200160002060008473ffffffffffffffffffffffffffffffffffffffff1673ffffffffffffffffffffffffffffffffffffffff16815260200190815260200160002060006101000a81548160ff0219169083151502179055508173ffffffffffffffffffffffffffffffffffffffff168373ffffffffffffffffffffffffffffffffffffffff167f17307eab39ab6107e8899845ad3d59bd9653f200f220920489ca2b5937696c31836040516119ad919061277e565b60405180910390a3505050565b6119c58484846115e6565b6119d184848484611c6e565b611a10576040517f08c379a0000000000000000000000000000000000000000000000000000000008152600401611a0790612829565b60405180910390fd5b50505050565b600073ffffffffffffffffffffffffffffffffffffffff168273ffffffffffffffffffffffffffffffffffffffff161415611a86576040517f08c379a0000000000000000000000000000000000000000000000000000000008152600401611a7d90612989565b60405180910390fd5b611a8f816112f0565b15611acf576040517f08c379a0000000000000000000000000000000000000000000000000000000008152600401611ac6906128a9565b60405180910390fd5b611adb60008383611c64565b6001600360008473ffffffffffffffffffffffffffffffffffffffff1673ffffffffffffffffffffffffffffffffffffffff1681526020019081526020016000206000828254611b2b9190612b6a565b92505081905550816002600083815260200190815260200160002060006101000a81548173ffffffffffffffffffffffffffffffffffffffff021916908373ffffffffffffffffffffffffffffffffffffffff160217905550808273ffffffffffffffffffffffffffffffffffffffff16600073ffffffffffffffffffffffffffffffffffffffff167fddf252ad1be2c89b69c2b068fc378daa952ba7f163c4a11628f55a4df523b3ef60405160405180910390a4611bec60008383611c69565b5050565b611bf9826112f0565b611c38576040517f08c379a0000000000000000000000000000000000000000000000000000000008152600401611c2f906129c9565b60405180910390fd5b80600f60008481526020019081526020016000209080519060200190611c5f929190611e28565b505050565b505050565b505050565b6000611c8f8473ffffffffffffffffffffffffffffffffffffffff16611e05565b15611df8578373ffffffffffffffffffffffffffffffffffffffff1663150b7a02611cb861135c565b8786866040518563ffffffff1660e01b8152600401611cda9493929190612732565b602060405180830381600087803b158015611cf457600080fd5b505af1925050508015611d2557506040513d601f19601f82011682018060405250810190611d2291906122d3565b60015b611da8573d8060008114611d55576040519150601f19603f3d011682016040523d82523d6000602084013e611d5a565b606091505b50600081511415611da0576040517f08c379a0000000000000000000000000000000000000000000000000000000008152600401611d9790612829565b60405180910390fd5b805181602001fd5b63150b7a0260e01b7bffffffffffffffffffffffffffffffffffffffffffffffffffffffff1916817bffffffffffffffffffffffffffffffffffffffffffffffffffffffff191614915050611dfd565b600190505b949350505050565b6000808273ffffffffffffffffffffffffffffffffffffffff163b119050919050565b828054611e3490612d1c565b90600052602060002090601f016020900481019282611e565760008555611e9d565b82601f10611e6f57805160ff1916838001178555611e9d565b82800160010185558215611e9d579182015b82811115611e9c578251825591602001919060010190611e81565b5b509050611eaa9190611eae565b5090565b5b80821115611ec7576000816000905550600101611eaf565b5090565b6000611ede611ed984612aa4565b612a7f565b90508083825260208201905082856020860282011115611efd57600080fd5b60005b85811015611f2d5781611f138882612085565b845260208401935060208301925050600181019050611f00565b5050509392505050565b6000611f4a611f4584612ad0565b612a7f565b905082815260208101848484011115611f6257600080fd5b611f6d848285612cda565b509392505050565b6000611f88611f8384612b01565b612a7f565b905082815260208101848484011115611fa057600080fd5b611fab848285612cda565b509392505050565b600081359050611fc281613347565b92915050565b600082601f830112611fd957600080fd5b8135611fe9848260208601611ecb565b91505092915050565b6000813590506120018161335e565b92915050565b60008135905061201681613375565b92915050565b60008151905061202b81613375565b92915050565b600082601f83011261204257600080fd5b8135612052848260208601611f37565b91505092915050565b600082601f83011261206c57600080fd5b813561207c848260208601611f75565b91505092915050565b6000813590506120948161338c565b92915050565b6000815190506120a98161338c565b92915050565b6000602082840312156120c157600080fd5b60006120cf84828501611fb3565b91505092915050565b600080604083850312156120eb57600080fd5b60006120f985828601611fb3565b925050602061210a85828601611fb3565b9150509250929050565b60008060006060848603121561212957600080fd5b600061213786828701611fb3565b935050602061214886828701611fb3565b925050604061215986828701612085565b9150509250925092565b6000806000806080858703121561217957600080fd5b600061218787828801611fb3565b945050602061219887828801611fb3565b93505060406121a987828801612085565b925050606085013567ffffffffffffffff8111156121c657600080fd5b6121d287828801612031565b91505092959194509250565b600080604083850312156121f157600080fd5b60006121ff85828601611fb3565b925050602061221085828601611ff2565b9150509250929050565b6000806040838503121561222d57600080fd5b600061223b85828601611fb3565b925050602083013567ffffffffffffffff81111561225857600080fd5b6122648582860161205b565b9150509250929050565b6000806040838503121561228157600080fd5b600061228f85828601611fb3565b92505060206122a085828601612085565b9150509250929050565b6000602082840312156122bc57600080fd5b60006122ca84828501612007565b91505092915050565b6000602082840312156122e557600080fd5b60006122f38482850161201c565b91505092915050565b60006020828403121561230e57600080fd5b600061231c84828501612085565b91505092915050565b60006020828403121561233757600080fd5b60006123458482850161209a565b91505092915050565b6000806040838503121561236157600080fd5b600061236f85828601612085565b925050602083013567ffffffffffffffff81111561238c57600080fd5b61239885828601611fc8565b9150509250929050565b6123ab81612bf4565b82525050565b6123ba81612c06565b82525050565b6123c981612c12565b82525050565b60006123da82612b32565b6123e48185612b48565b93506123f4818560208601612ce9565b6123fd81612eb5565b840191505092915050565b61241181612ca4565b82525050565b61242081612cc8565b82525050565b600061243182612b3d565b61243b8185612b59565b935061244b818560208601612ce9565b61245481612eb5565b840191505092915050565b600061246c603283612b59565b915061247782612ec6565b604082019050919050565b600061248f601783612b59565b915061249a82612f15565b602082019050919050565b60006124b2602583612b59565b91506124bd82612f3e565b604082019050919050565b60006124d5600f83612b59565b91506124e082612f8d565b602082019050919050565b60006124f8601c83612b59565b915061250382612fb6565b602082019050919050565b600061251b602483612b59565b915061252682612fdf565b604082019050919050565b600061253e601983612b59565b91506125498261302e565b602082019050919050565b6000612561602c83612b59565b915061256c82613057565b604082019050919050565b6000612584603883612b59565b915061258f826130a6565b604082019050919050565b60006125a7602a83612b59565b91506125b2826130f5565b604082019050919050565b60006125ca602983612b59565b91506125d582613144565b604082019050919050565b60006125ed602083612b59565b91506125f882613193565b602082019050919050565b6000612610602c83612b59565b915061261b826131bc565b604082019050919050565b6000612633602c83612b59565b915061263e8261320b565b604082019050919050565b6000612656602f83612b59565b91506126618261325a565b604082019050919050565b6000612679602183612b59565b9150612684826132a9565b604082019050919050565b600061269c603183612b59565b91506126a7826132f8565b604082019050919050565b6126bb81612c48565b82525050565b6126ca81612c76565b82525050565b6126d981612c80565b82525050565b6126e881612c90565b82525050565b600060208201905061270360008301846123a2565b92915050565b600060408201905061271e60008301856123a2565b61272b60208301846123a2565b9392505050565b600060808201905061274760008301876123a2565b61275460208301866123a2565b61276160408301856126c1565b818103606083015261277381846123cf565b905095945050505050565b600060208201905061279360008301846123b1565b92915050565b600060a0820190506127ae60008301886123c0565b6127bb60208301876126df565b6127c860408301866126b2565b6127d560608301856126d0565b6127e26080830184612417565b9695505050505050565b60006020820190506128016000830184612408565b92915050565b600060208201905081810360008301526128218184612426565b905092915050565b600060208201905081810360008301526128428161245f565b9050919050565b6000602082019050818103600083015261286281612482565b9050919050565b60006020820190508181036000830152612882816124a5565b9050919050565b600060208201905081810360008301526128a2816124c8565b9050919050565b600060208201905081810360008301526128c2816124eb565b9050919050565b600060208201905081810360008301526128e28161250e565b9050919050565b6000602082019050818103600083015261290281612531565b9050919050565b6000602082019050818103600083015261292281612554565b9050919050565b6000602082019050818103600083015261294281612577565b9050919050565b600060208201905081810360008301526129628161259a565b9050919050565b60006020820190508181036000830152612982816125bd565b9050919050565b600060208201905081810360008301526129a2816125e0565b9050919050565b600060208201905081810360008301526129c281612603565b9050919050565b600060208201905081810360008301526129e281612626565b9050919050565b60006020820190508181036000830152612a0281612649565b9050919050565b60006020820190508181036000830152612a228161266c565b9050919050565b60006020820190508181036000830152612a428161268f565b9050919050565b6000602082019050612a5e60008301846126c1565b92915050565b6000602082019050612a7960008301846126df565b92915050565b6000612a89612a9a565b9050612a958282612d4e565b919050565b6000604051905090565b600067ffffffffffffffff821115612abf57612abe612e86565b5b602082029050602081019050919050565b600067ffffffffffffffff821115612aeb57612aea612e86565b5b612af482612eb5565b9050602081019050919050565b600067ffffffffffffffff821115612b1c57612b1b612e86565b5b612b2582612eb5565b9050602081019050919050565b600081519050919050565b600081519050919050565b600082825260208201905092915050565b600082825260208201905092915050565b6000612b7582612c76565b9150612b8083612c76565b9250827fffffffffffffffffffffffffffffffffffffffffffffffffffffffffffffffff03821115612bb557612bb4612df9565b5b828201905092915050565b6000612bcb82612c76565b9150612bd683612c76565b925082821015612be957612be8612df9565b5b828203905092915050565b6000612bff82612c56565b9050919050565b60008115159050919050565b6000819050919050565b60007fffffffff0000000000000000000000000000000000000000000000000000000082169050919050565b600061ffff82169050919050565b600073ffffffffffffffffffffffffffffffffffffffff82169050919050565b6000819050919050565b600063ffffffff82169050919050565b600067ffffffffffffffff82169050919050565b6000612caf82612cb6565b9050919050565b6000612cc182612c56565b9050919050565b6000612cd382612c80565b9050919050565b82818337600083830152505050565b60005b83811015612d07578082015181840152602081019050612cec565b83811115612d16576000848401525b50505050565b60006002820490506001821680612d3457607f821691505b60208210811415612d4857612d47612e57565b5b50919050565b612d5782612eb5565b810181811067ffffffffffffffff82111715612d7657612d75612e86565b5b80604052505050565b6000612d8a82612c76565b91507fffffffffffffffffffffffffffffffffffffffffffffffffffffffffffffffff821415612dbd57612dbc612df9565b5b600182019050919050565b6000612dd382612c76565b9150612dde83612c76565b925082612dee57612ded612e28565b5b828206905092915050565b7f4e487b7100000000000000000000000000000000000000000000000000000000600052601160045260246000fd5b7f4e487b7100000000000000000000000000000000000000000000000000000000600052601260045260246000fd5b7f4e487b7100000000000000000000000000000000000000000000000000000000600052602260045260246000fd5b7f4e487b7100000000000000000000000000000000000000000000000000000000600052604160045260246000fd5b6000601f19601f8301169050919050565b7f4552433732313a207472616e7366657220746f206e6f6e20455243373231526560008201527f63656976657220696d706c656d656e7465720000000000000000000000000000602082015250565b7f6472617720726571756573742069732070656e64696e67000000000000000000600082015250565b7f4552433732313a207472616e736665722066726f6d20696e636f72726563742060008201527f6f776e6572000000000000000000000000000000000000000000000000000000602082015250565b7f6472617720636172642066697273740000000000000000000000000000000000600082015250565b7f4552433732313a20746f6b656e20616c7265616479206d696e74656400000000600082015250565b7f4552433732313a207472616e7366657220746f20746865207a65726f2061646460008201527f7265737300000000000000000000000000000000000000000000000000000000602082015250565b7f4552433732313a20617070726f766520746f2063616c6c657200000000000000600082015250565b7f4552433732313a206f70657261746f7220717565727920666f72206e6f6e657860008201527f697374656e7420746f6b656e0000000000000000000000000000000000000000602082015250565b7f4552433732313a20617070726f76652063616c6c6572206973206e6f74206f7760008201527f6e6572206e6f7220617070726f76656420666f7220616c6c0000000000000000602082015250565b7f4552433732313a2062616c616e636520717565727920666f7220746865207a6560008201527f726f206164647265737300000000000000000000000000000000000000000000602082015250565b7f4552433732313a206f776e657220717565727920666f72206e6f6e657869737460008201527f656e7420746f6b656e0000000000000000000000000000000000000000000000602082015250565b7f4552433732313a206d696e7420746f20746865207a65726f2061646472657373600082015250565b7f4552433732313a20617070726f76656420717565727920666f72206e6f6e657860008201527f697374656e7420746f6b656e0000000000000000000000000000000000000000602082015250565b7f4552433732314d657461646174613a2055524920736574206f66206e6f6e657860008201527f697374656e7420746f6b656e0000000000000000000000000000000000000000602082015250565b7f4552433732314d657461646174613a2055524920717565727920666f72206e6f60008201527f6e6578697374656e7420746f6b656e0000000000000000000000000000000000602082015250565b7f4552433732313a20617070726f76616c20746f2063757272656e74206f776e6560008201527f7200000000000000000000000000000000000000000000000000000000000000602082015250565b7f4552433732313a207472616e736665722063616c6c6572206973206e6f74206f60008201527f776e6572206e6f7220617070726f766564000000000000000000000000000000602082015250565b61335081612bf4565b811461335b57600080fd5b50565b61336781612c06565b811461337257600080fd5b50565b61337e81612c1c565b811461338957600080fd5b50565b61339581612c76565b81146133a057600080fd5b5056fea26469706673582212203915f90312283c94c37a2b9af747b742691742960a95d9ad84e94fba9b4573fb64736f6c63430008040033",
  "devdoc": {
    "kind": "dev",
    "methods": {
      "approve(address,uint256)": {
        "details": "See {IERC721-approve}."
      },
      "balanceOf(address)": {
        "details": "See {IERC721-balanceOf}."
      },
      "getApproved(uint256)": {
        "details": "See {IERC721-getApproved}."
      },
      "isApprovedForAll(address,address)": {
        "details": "See {IERC721-isApprovedForAll}."
      },
      "name()": {
        "details": "See {IERC721Metadata-name}."
      },
      "ownerOf(uint256)": {
        "details": "See {IERC721-ownerOf}."
      },
      "safeTransferFrom(address,address,uint256)": {
        "details": "See {IERC721-safeTransferFrom}."
      },
      "safeTransferFrom(address,address,uint256,bytes)": {
        "details": "See {IERC721-safeTransferFrom}."
      },
      "setApprovalForAll(address,bool)": {
        "details": "See {IERC721-setApprovalForAll}."
      },
      "supportsInterface(bytes4)": {
        "details": "See {IERC165-supportsInterface}."
      },
      "symbol()": {
        "details": "See {IERC721Metadata-symbol}."
      },
      "tokenURI(uint256)": {
        "details": "See {IERC721Metadata-tokenURI}."
      },
      "transferFrom(address,address,uint256)": {
        "details": "See {IERC721-transferFrom}."
      }
    },
    "version": 1
  },
  "userdoc": {
    "kind": "user",
    "methods": {},
    "version": 1
  },
  "storageLayout": {
    "storage": [
      {
        "astId": 172,
        "contract": "contracts/DMagic.sol:DMagic",
        "label": "_name",
        "offset": 0,
        "slot": "0",
        "type": "t_string_storage"
      },
      {
        "astId": 174,
        "contract": "contracts/DMagic.sol:DMagic",
        "label": "_symbol",
        "offset": 0,
        "slot": "1",
        "type": "t_string_storage"
      },
      {
        "astId": 178,
        "contract": "contracts/DMagic.sol:DMagic",
        "label": "_owners",
        "offset": 0,
        "slot": "2",
        "type": "t_mapping(t_uint256,t_address)"
      },
      {
        "astId": 182,
        "contract": "contracts/DMagic.sol:DMagic",
        "label": "_balances",
        "offset": 0,
        "slot": "3",
        "type": "t_mapping(t_address,t_uint256)"
      },
      {
        "astId": 186,
        "contract": "contracts/DMagic.sol:DMagic",
        "label": "_tokenApprovals",
        "offset": 0,
        "slot": "4",
        "type": "t_mapping(t_uint256,t_address)"
      },
      {
        "astId": 192,
        "contract": "contracts/DMagic.sol:DMagic",
        "label": "_operatorApprovals",
        "offset": 0,
        "slot": "5",
        "type": "t_mapping(t_address,t_mapping(t_address,t_bool))"
      },
      {
        "astId": 1741,
        "contract": "contracts/DMagic.sol:DMagic",
        "label": "COORDINATOR",
        "offset": 0,
        "slot": "6",
        "type": "t_contract(VRFCoordinatorV2Interface)146"
      },
      {
        "astId": 1743,
        "contract": "contracts/DMagic.sol:DMagic",
        "label": "vrfSubscriptionId",
        "offset": 20,
        "slot": "6",
        "type": "t_uint64"
      },
      {
        "astId": 1746,
        "contract": "contracts/DMagic.sol:DMagic",
        "label": "drawCost",
        "offset": 0,
        "slot": "7",
        "type": "t_uint64"
      },
      {
        "astId": 1750,
        "contract": "contracts/DMagic.sol:DMagic",
        "label": "requestIds",
        "offset": 0,
        "slot": "8",
        "type": "t_mapping(t_uint256,t_address)"
      },
      {
        "astId": 1754,
        "contract": "contracts/DMagic.sol:DMagic",
        "label": "userRequestIds",
        "offset": 0,
        "slot": "9",
        "type": "t_mapping(t_address,t_uint256)"
      },
      {
        "astId": 1758,
        "contract": "contracts/DMagic.sol:DMagic",
        "label": "userRandomWords",
        "offset": 0,
        "slot": "10",
        "type": "t_mapping(t_address,t_uint256)"
      },
      {
        "astId": 1762,
        "contract": "contracts/DMagic.sol:DMagic",
        "label": "tokenCards",
        "offset": 0,
        "slot": "11",
        "type": "t_mapping(t_uint256,t_uint256)"
      },
      {
        "astId": 1765,
        "contract": "contracts/DMagic.sol:DMagic",
        "label": "cardIdLimit",
        "offset": 0,
        "slot": "12",
        "type": "t_uint32"
      },
      {
        "astId": 1768,
        "contract": "contracts/DMagic.sol:DMagic",
        "label": "callbackGasLimit",
        "offset": 4,
        "slot": "12",
        "type": "t_uint32"
      },
      {
        "astId": 1771,
        "contract": "contracts/DMagic.sol:DMagic",
        "label": "requestConfirmations",
        "offset": 8,
        "slot": "12",
        "type": "t_uint16"
      },
      {
        "astId": 1773,
        "contract": "contracts/DMagic.sol:DMagic",
        "label": "vrfKeyHash",
        "offset": 0,
        "slot": "13",
        "type": "t_bytes32"
      },
      {
        "astId": 1775,
        "contract": "contracts/DMagic.sol:DMagic",
        "label": "_tokenIds",
        "offset": 0,
        "slot": "14",
        "type": "t_uint256"
      },
      {
        "astId": 1779,
        "contract": "contracts/DMagic.sol:DMagic",
        "label": "_tokenURIs",
        "offset": 0,
        "slot": "15",
        "type": "t_mapping(t_uint256,t_string_storage)"
      }
    ],
    "types": {
      "t_address": {
        "encoding": "inplace",
        "label": "address",
        "numberOfBytes": "20"
      },
      "t_bool": {
        "encoding": "inplace",
        "label": "bool",
        "numberOfBytes": "1"
      },
      "t_bytes32": {
        "encoding": "inplace",
        "label": "bytes32",
        "numberOfBytes": "32"
      },
      "t_contract(VRFCoordinatorV2Interface)146": {
        "encoding": "inplace",
        "label": "contract VRFCoordinatorV2Interface",
        "numberOfBytes": "20"
      },
      "t_mapping(t_address,t_bool)": {
        "encoding": "mapping",
        "key": "t_address",
        "label": "mapping(address => bool)",
        "numberOfBytes": "32",
        "value": "t_bool"
      },
      "t_mapping(t_address,t_mapping(t_address,t_bool))": {
        "encoding": "mapping",
        "key": "t_address",
        "label": "mapping(address => mapping(address => bool))",
        "numberOfBytes": "32",
        "value": "t_mapping(t_address,t_bool)"
      },
      "t_mapping(t_address,t_uint256)": {
        "encoding": "mapping",
        "key": "t_address",
        "label": "mapping(address => uint256)",
        "numberOfBytes": "32",
        "value": "t_uint256"
      },
      "t_mapping(t_uint256,t_address)": {
        "encoding": "mapping",
        "key": "t_uint256",
        "label": "mapping(uint256 => address)",
        "numberOfBytes": "32",
        "value": "t_address"
      },
      "t_mapping(t_uint256,t_string_storage)": {
        "encoding": "mapping",
        "key": "t_uint256",
        "label": "mapping(uint256 => string)",
        "numberOfBytes": "32",
        "value": "t_string_storage"
      },
      "t_mapping(t_uint256,t_uint256)": {
        "encoding": "mapping",
        "key": "t_uint256",
        "label": "mapping(uint256 => uint256)",
        "numberOfBytes": "32",
        "value": "t_uint256"
      },
      "t_string_storage": {
        "encoding": "bytes",
        "label": "string",
        "numberOfBytes": "32"
      },
      "t_uint16": {
        "encoding": "inplace",
        "label": "uint16",
        "numberOfBytes": "2"
      },
      "t_uint256": {
        "encoding": "inplace",
        "label": "uint256",
        "numberOfBytes": "32"
      },
      "t_uint32": {
        "encoding": "inplace",
        "label": "uint32",
        "numberOfBytes": "4"
      },
      "t_uint64": {
        "encoding": "inplace",
        "label": "uint64",
        "numberOfBytes": "8"
      }
    }
  }
}